:06001B0001123C0108B0D7
:03000B00020022CE
:0100220032AB
:10013600D2AFE4F5A4F591F5841201DF120289200D
:1001460000FA20002012021F8F13E51360F724081F
:10015600F8E6B420F074082FF876581201961200CB
:10016600B25002D20020002012021F8F13E5136046
:10017600F72408F8E6B420F074082FF8764F120139
:10018600961200B25002D20012021FEF60B180F840
:10028900C200E4FFFE7E0978097420F608DEFC7ED0
:10029900007F09D2A4D285D2A7D286D296D284D29F
:0502A900A5D287D2A6DA
:0102AE00222D
:10021F0020A0037F01222081037F022220A3037FDE
:10022F0003222082037F04222094037F0522208053
:10023F00037F062220A1037F07222083037F08224A
:09024F0020A2037F09227F002296
:1000B200E4FFFEEF75F003A4240AF8E6FDEF75F005
:1000C20003A42409F8E6FCB50514EF75F003A42493
:1000D2000BF8E6FDECB5050664206002D3220FBFE3
:1000E20000010EEF64034E70CAE4FEFF740C2FF899
:1000F200E6FD74092FF8E6FCB50510740F2FF8E63B
:10010200FDECB5050664206002D3220FBF00010E8C
:10011200EF64034E70D6E509B50D09B511066420EA
:100122006002D322E50BB50D09B50F06642060020B
:03013200D322C312
:0101350022A7
:10019600E50964206002C2A4E50A64206002C28503
:1001A600E50B64206002C2A7E50C64206002C286EB
:1001B600E50D64206002C296E50E64206002C284EA
:1001C600E50F64206002C2A5E51064206002C287C4
:0901D600E51164206002C2A622BA
:1001DF001202587F481200037F451200037F4C1212
:1001EF0000037F4C1200037F4F1200037F0A12009F
:1001FF00037F481200037F451200037F4C12000358
:10020F007F4C1200037F4F1200037F0A120003225C
:100258005387BF75985053877FE4F5BA43A240F59A
:10026800BD75BEF075BF0275BD035391FE43920183
:100278004391025392FDC20153B8EF53B7EFD2AC8A
:010288002253
:0300230002000ECA
:0D000E00309802C298309904C299C20132A4
:080003002001FDD2018F9922BA
:0302AF00AF9922E2
:03000000020026D5
:0C002600787FE4F6D8FD75812002006DA3
:10003200020136E493A3F8E493A34003F68001F2AD
:1000420008DFF48029E493A3F85407240CC8C333CF
:10005200C4540F4420C8834004F456800146F6DF9E
:10006200E4800B010204081020408090001BE47E13
:10007200019360BCA3FF543F30E509541FFEE49393
:10008200A360010ECF54C025E060A840B8E493A35A
:10009200FAE493A3F8E493A3C8C582C8CAC583CA85
:1000A200F0A3C8C582C8CAC583CADFE9DEE780BE3D
:0100210000DE
:00000001FF
