:10036600202246003F003F00470047003F003F3540
:10037600003F000047007E009E00BC9E008D009E50
:1003860000009E0000036A8DA8A70376202040097E
:100396002448454C4C4F210A000006392D2D2D2DA1
:1003A6002D00012200014500017958063F207C20DE
:0F03B6007C2000C100016F00016E20C181C102D7
:03001B000200E9F7
:1000E900C0E0C0F0C083C082C0D075D000C000C0DD
:1000F90001C002C003C004C005C006C007C28E7596
:100109002108300208E52D256FF8E6F521E571652E
:1001190021601B0569AF69EF75F00A1203C685F006
:1001290069E569640960020571120590804CC28C09
:10013900C28D757000C297E52E64056007052E1201
:1001490005908036757100756901E56FB56E10C24D
:100159000175746A752D76756E03756F00801B05C0
:100169006FE574256FF8E6FF7004C28C80078F8CE9
:10017900858C8AD28CD28E752E00D007D006D005F8
:10018900D004D003D002D001D000D0D0D082D08307
:05019900D0F0D0E032BF
:03000B00020026CA
:10002600C0E0C0D075D000C001300116E574256F60
:10003600F9E570677007B297F5700200E205700285
:1000460000E2C28CE52FB45804C2A48007E52FB4A1
:100056004F02B2A4E530B45804C2858007E530B437
:100066004F02B285E531B45804C2A78007E531B422
:100076004F02B2A7E532B45804C2868007E532B40F
:100086004F02B286E533B45804C2968007E533B40E
:100096004F02B296E534B45804C2848007E534B4FE
:1000A6004F02B284E535B45804C2A58007E535B4DD
:1000B6004F02B2A5E536B45804C2878007E536B4C8
:1000C6004F02B287E537B45804C2A68007E537B4B5
:1000D6004F02B2A6758C00758A01D28CD001D0D0A1
:0300E600D0E03235
:0B058500E4F5230523E523B4FFF92271
:10053A0075891243A88A75B808758C19758A197550
:10054A008D44758B7F756901E4F52EF571F570D2CE
:07055A008FC2972001FD2272
:09059000758D44758B7FD28E221B
:10041500E4F56DE4F568E56D75F003A42568242F12
:10042500F8E6FFE56825E0243FF8A6070568E568D6
:10043500B403E37B007A00793F120460E56D640242
:1004450060097B007A007939120460056DC3E56D9A
:0B0455006480948340BD7F0A02000316
:10056100E4F572F573742F2573F8E6B42005E5738D
:1005710004FF220573E57370020572640945727008
:04058100E47F0022F1
:1004D500C203E4FF7F09782F7420F608DFFC7F094B
:1004E500D2A4D285D2A7D286D296D284D2A5D287DB
:1004F500D2A6758901E4F58C758A0143A882D28C50
:03050500757958AD
:0105080022D0
:10049C0020A0037F01222081037F022220A3037F5F
:1004AC0003222082037F04222094037F05222080D4
:1004BC00037F062220A1037F07222083037F0822CB
:0904CC0020A2037F09227F002217
:10019E00E4FFFED205EF75F003A42430F8E6FDEF80
:1001AE0075F003A4242FF8E6FCB50514EF75F003E3
:1001BE00A42431F8E6FDECB5050664206002D322D6
:1001CE000FBF00010EEF64034E70CAE4FEFF7432DF
:1001DE002FF8E6FD742F2FF8E6FCB5051074352FB9
:1001EE00F8E6FDECB5050664206002D3220FBF00D1
:1001FE00010EEF64034E70D6E52FB53309B5370601
:10020E0064206002D322E531B53309B5350664208A
:10021E006002D322E4FEFF742F2FF8E6B42002C250
:10022E00050FBF00010EEF64094E70EB300502D3CF
:02023E0022C3D9
:01024000229B
:100460008B088A09890AE4F522AB08AA09A90AAF10
:1004700022EF3395E08F82F5831203E8FF600712C5
:100480000003052280E3E4F572F5730573E57370EC
:0C049000020572B410F5E572B427F022EA
:10024100E4F5A4F591F584C292C293F538D2017513
:100251007446F52D756E2012053A1205097B007A58
:10026100007924120460D2AFC20020A002D2003073
:10027100A0FD1204D520035A30000CE579B44F07D4
:100281001205618F45800512049C8F45E54560E8A4
:10029100242EF8E6B420E1742E2545F8A67912043F
:1002A1001512019E5017D203E579B45809D2921262
:1002B1000585C2928007D293120585C293E579B470
:1002C100580575794F800375795812049CEF60A524
:0902D10080F8D20112053A808F79
:100509005387BF75985053877FE4F5BA43A240F5E6
:10051900BD75BEF075BF0275BD035391FE439201CF
:100529004391025392FDC20453B8EF53B7EFD2ACD3
:01053900229F
:0300230002000ECA
:0D000E00309802C298309904C299C20432A1
:080003002004FDD2048F9922B4
:030000000202DA1F
:0C02DA00787FE4F6D8FD758179020321DD
:1003C600C2D530F707B2D563F0FF05F030E70CB2BF
:1003D600D5F4048463F0FF05F080018430D502F47F
:0203E6000422EF
:1003E800BB010CE58229F582E5833AF583E02250CA
:1003F80006E92582F8E622BBFE06E92582F8E22214
:0D040800E58229F582E5833AF583E493222D
:1002E600020241E493A3F8E493A34003F68001F2EB
:1002F60008DFF48029E493A3F85407240CC8C33319
:10030600C4540F4420C8834004F456800146F6DFE7
:10031600E4800B0102040810204080900366E47E0E
:10032600019360BCA3FF543F30E509541FFEE493DC
:10033600A360010ECF54C025E060A840B8E493A3A3
:10034600FAE493A3F8E493A3C8C582C8CAC583CACE
:10035600F0A3C8C582C8CAC583CADFE9DEE780BE86
:0103C5000037
:00000001FF
