:10008700E4F5A4F591F5841201642000FA2000201C
:1000970012012B8F11E51160F72407F8E6B420F061
:1000A70074072FF876581200E21200035002D200AC
:1000B70020002012012B8F11E51160F72407F8E6C5
:1000C700B420F074072FF8764F1200E212000350A5
:0B00D70002D20012012BEF60B180F894
:10016400C200E4FFFE7E0978087420F608DEFC7EF7
:10017400007F09D2A4D285D2A7D286D296D284D2C5
:05018400A5D287D2A600
:010189002253
:10012B0020A0037F01222081037F022220A3037FD3
:10013B0003222082037F04222094037F0522208048
:10014B00037F062220A1037F07222083037F08223F
:09015B0020A2037F09227F00228B
:10000300E4FFFEEF75F003A42409F8E6FDEF75F0B5
:1000130003A42408F8E6FCB50514EF75F003A42443
:100023000AF8E6FDECB5050664206002D3220FBF93
:1000330000010EEF64034E70CAE4FEFF740B2FF849
:10004300E6FD74082FF8E6FCB50510740E2FF8E6EC
:10005300FDECB5050664206002D3220FBF00010E3C
:10006300EF64034E70D6E508B50C09B5100664209D
:100073006002D322E50AB50C09B50E0664206002BE
:03008300D322C3C2
:010086002257
:1000E200E50864206002C2A4E50964206002C285BA
:1000F200E50A64206002C2A7E50B64206002C286A2
:10010200E50C64206002C296E50D64206002C284A0
:10011200E50E64206002C2A5E50F64206002C2877A
:09012200E51064206002C2A6226F
:0300000002018A70
:0C018A00787FE4F6D8FD75812002008724
:00000001FF
