:10033700012200014600092448454C4C4F210A0080
:1003470000025100000179580640207C207C2000E3
:10035700063A2D2D2D2D2D00C180202257003F005C
:100367003F00470047003F003F35003F0000470080
:100377007E009E00BC9E008D009E00009E00000334
:10038700498DA8A70354202040014E00014D20C1EC
:0303970081C1021F
:0B055A00E4F5230523E523B4FFF9229C
:10050F0075891243A88A75B808758C19758A19757B
:10051F008D44758B7F754801E4F52EF550F54FD25C
:07052F008FC2972001FD229D
:03001B000200E9F7
:1000E900C0E0C0F0C083C082C0D075D000C000C0DD
:1000F90001C002C003C004C005C006C007C28E7596
:100109002108300208E52F254EF8E6F521E550656E
:1001190021601B0548AF48EF75F00A12039B85F073
:1001290048E548640960020550120565804CC28C97
:10013900C28D754F00C297E52E64056007052E1222
:1001490005658036755000754801E54EB54D10C2FC
:1001590001755349752F54754D03754E00801B0564
:100169004EE553254EF8E6FF7004C28C80078F8C4C
:10017900858C8AD28CD28E752E00D007D006D005F8
:10018900D004D003D002D001D000D0D0D082D08307
:05019900D0F0D0E032BF
:09056500758D44758B7FD28E2246
:03000B00020026CA
:10002600C0E0C0D075D000C001300116E553254EA2
:10003600F9E54F677007B297F54F0200E2054F02E8
:1000460000E2C28CE530B45804C2A48007E530B49F
:100056004F02B2A4E531B45804C2858007E531B435
:100066004F02B285E532B45804C2A78007E532B420
:100076004F02B2A7E533B45804C2868007E533B40D
:100086004F02B286E534B45804C2968007E534B40C
:100096004F02B296E535B45804C2848007E535B4FC
:1000A6004F02B284E536B45804C2A58007E536B4DB
:1000B6004F02B2A5E537B45804C2878007E537B4C6
:1000C6004F02B287E538B45804C2A68007E538B4B3
:1000D6004F02B2A6758C00758A01D28CD001D0D0A1
:0300E600D0E03235
:1003EA00E4F54CE4F547E54C75F003A425472430C1
:1003FA00F8E6FFE54725E02440F8A6070547E54764
:10040A00B403E37B007A007940120435E54C6402B8
:10041A0060097B007A00793A120435054CC3E54C31
:0B042A006480948340BD7F0A02000341
:10053600E4F551F55274302552F8E6B42005E5523B
:1005460004FF220552E552700205516409455170B7
:04055600E47F00221C
:10022A00E4F5A4F591F584F539755349752F54759C
:10023A004D02C201D2AF1204DE7B007A0079241289
:10024A0004351204AA20035A30000CE579B44F078A
:10025A001205368F4680051204718F46E54660E81E
:10026A00242FF8E6B420E1742F2546F8A679120364
:10027A00EA1202B35017D203E579B45809D292129E
:10028A00055AC2928007D29312055AC293E579B4ED
:10029A00580575794F8003757958120471EF60A576
:0902AA0080F8D20112050F8099C1
:1004AA00C203E4FF7F0978307420F608DFFC7F0975
:1004BA00D2A4D285D2A7D286D296D284D2A5D28706
:1004CA00D2A6758901E4F58C758A0143A882D28C7B
:0304DA00757958D9
:0104DD0022FC
:1004710020A0037F01222081037F022220A3037F8A
:1004810003222082037F04222094037F05222080FF
:10049100037F062220A1037F07222083037F0822F6
:0904A10020A2037F09227F002242
:1002B300E4FFFEEF75F003A42431F8E6FDEF75F0DB
:1002C30003A42430F8E6FCB50514EF75F003A42469
:1002D30032F8E6FDECB5050664206002D3220FBFB9
:1002E30000010EEF64034E70CAE4FEFF74332FF86F
:1002F300E6FD74302FF8E6FCB5051074362FF8E6EA
:10030300FDECB5050664206002D3220FBF00010E89
:10031300EF64034E70D6E530B53409B53806642072
:100323006002D322E532B53409B536066420600293
:03033300D322C30F
:0103360022A4
:100435008B088A09890AE4F522AB08AA09A90AAF3B
:1004450022EF3395E08F82F5831203BDFF6007121B
:100455000003052280E3E4F551F5520552E552709B
:0C046500020551B410F5E551B427F02257
:1004DE005387BF75985053877FE4F5BA43A240F512
:1004EE00BD75BEF075BF0275BD035391FE439201FB
:1004FE004391025392FDC20453B8EF53B7EFD2ACFF
:01050E0022CA
:0300230002000ECA
:0D000E00309802C298309904C299C20432A1
:080003002004FDD2048F9922B4
:0300000002019E5C
:0C019E00787FE4F6D8FD7581790201E558
:10039B00C2D530F707B2D563F0FF05F030E70CB2EA
:1003AB00D5F4048463F0FF05F080018430D502F4AA
:0203BB0004221A
:1003BD00BB010CE58229F582E5833AF583E02250F5
:1003CD0006E92582F8E622BBFE06E92582F8E2223F
:0D03DD00E58229F582E5833AF583E4932259
:1001AA0002022AE493A3F8E493A34003F68001F23F
:1001BA0008DFF48029E493A3F85407240CC8C33356
:1001CA00C4540F4420C8834004F456800146F6DF25
:1001DA00E4800B0102040810204080900337E47E7B
:1001EA00019360BCA3FF543F30E509541FFEE4931A
:1001FA00A360010ECF54C025E060A840B8E493A3E1
:10020A00FAE493A3F8E493A3C8C582C8CAC583CA0B
:10021A00F0A3C8C582C8CAC583CADFE9DEE780BEC3
:01039A000062
:00000001FF
