:10027E00202258003F003F00470047003F003F3517
:10028E00003F000047007E009E00BC9E008D009E39
:10029E0000009E000003498DA8A7035420204001B2
:1002AE004E00014D20C180C1010146000924484580
:1002BE004C4C4F210A0000025100000157580640D5
:1002CE00207C207C2000063A2D2D2D2D2D00012284
:0102DE00001F
:10045C0075891275A88A75B808758C19758A1975FD
:10046C008D44758B7F754801E4F52EF550F54FD210
:0A047C008FC2972000FD75A89022A2
:03001B00020026BA
:10002600C0E0C0F0C083C082C0D075D000C000C0A0
:1000360001C002C003C004C005C006C007C28E7559
:100046002108300108E52F254EF8E6F521E5506533
:1000560021601B0548AF48EF75F00A1202E085F0F3
:1000660048E5486409600205501204D1804CC28CF0
:10007600C28D754F00C297E52E64056007052E12E6
:1000860004D18036755000754801E54EB54D10C255
:1000960000755349752F54754D03754E00801B0529
:1000A6004EE553254EF8E6FF7004C28C80078F8C10
:1000B600858C8AD28CD28E752E00D007D006D005BC
:1000C600D004D003D002D001D000D0D0D082D083CB
:0500D600D0F0D0E03283
:0904D100758D44758B7FD28E22DB
:03000B000204AC40
:1004AC00C0E0C0D075D000C001300012E553254E1D
:1004BC00F9E54F677006B297F54F8002054FD001F2
:0504CC00D0D0D0E032A9
:10037800E4F54CE54C75F003A42430F8E6FF1200D0
:1003880003E54C75F003A42431F8E6FF120003E5F9
:100398004C75F003A42432F8E6FF1200037F0A121A
:0E03A8000003054CC3E54C6480948340C622DC
:1000DB00E4F5A4F591F584F539755349752F5475ED
:1000EB004D02D2AF12042B7B007A0079241203B697
:1000FB001204862002621203F28F46E54660F72453
:10010B002FF8E6B420F0C2A4742F2FF8A6571203D1
:10011B002F1203781201FA5028D202E557B4580E69
:10012B00D292E4F5230523E523B4FFF9C292E557F8
:10013B00B44F0ED293E4F5230523E523B4FFF9C2A4
:10014B0093E557B4580575574F80037557581203ED
:10015B00F2EF70FAC2A4809BD2A4C285D200120423
:03016B005C808D28
:10048600C202E4FF7F0978307420F608DFFC7F099A
:10049600D2A4D285D2A7D286D296D284D2A5D2872A
:0504A600D2A6755758B5
:0104AB00222E
:1003F20020A0037F01222081037F022220A3037F0A
:1004020003222082037F04222094037F052220807E
:10041200037F062220A1037F07222083037F082275
:0904220020A2037F09227F0022C1
:1001FA00E4FFFEEF75F003A42431F8E6FDEF75F095
:10020A0003A42430F8E6FCB50514EF75F003A42422
:10021A0032F8E6FDECB5050664206002D3220FBF72
:10022A0000010EEF64034E70CAE4FEFF74332FF828
:10023A00E6FD74302FF8E6FCB5051074362FF8E6A3
:10024A00FDECB5050664206002D3220FBF00010E43
:10025A00EF64034E70D6E530B53409B5380664202C
:10026A006002D322E532B53409B53606642060024D
:03027A00D322C3C9
:01027D00225E
:10032F00E53064206002C2A4E53164206002C2851A
:10033F00E53264206002C2A7E53364206002C28602
:10034F00E53464206002C296E53564206002C28401
:10035F00E53664206002C2A5E53764206002C287DB
:09036F00E53864206002C2A622F8
:1003B6008B088A09890AE4F522AB08AA09A90AAFBB
:1003C60022EF3395E08F82F583120302FF60071256
:1003D6000003052280E3E4F551F5520552E552701B
:0C03E600020551B410F5E551B427F022D7
:10042B005387BF75985053877FE4F5BA43A240F5C5
:10043B00BD75BEF075BF0275BD035391FE439201AE
:10044B004391025392FDC20353B8EF53B7EFD2ACB3
:01045B00227E
:0300230002000ECA
:0D000E00309802C298309904C299C20332A2
:080003002003FDD2038F9922B6
:0300000002016E8C
:0C016E00787FE4F6D8FD7581790201B5B8
:1002E000C2D530F707B2D563F0FF05F030E70CB2A6
:1002F000D5F4048463F0FF05F080018430D502F466
:020300000422D5
:10030200BB010CE58229F582E5833AF583E02250B0
:1003120006E92582F8E622BBFE06E92582F8E222FA
:0D032200E58229F582E5833AF583E4932214
:10017A000200DBE493A3F8E493A34003F68001F2C0
:10018A0008DFF48029E493A3F85407240CC8C33386
:10019A00C4540F4420C8834004F456800146F6DF55
:1001AA00E4800B010204081020408090027EE47E65
:1001BA00019360BCA3FF543F30E509541FFEE4934A
:1001CA00A360010ECF54C025E060A840B8E493A311
:1001DA00FAE493A3F8E493A3C8C582C8CAC583CA3C
:1001EA00F0A3C8C582C8CAC583CADFE9DEE780BEF4
:0102DF00001E
:00000001FF
